:100000002AC04EC04DC04CC04BC04AC049C048C0B9
:1000100047C046C045C00BC343C042C041C040C0FA
:100020003FC00000000000040302010000000102C4
:1000300004081020408004020108010101010101AF
:1000400001010202020200003B00380000003A00F9
:10005000370048024D0211241FBECFE5D1E0DEBFBC
:10006000CDBF10E0A0E6B0E0E2EEFDE002C00590FA
:100070000D92A038B107D9F720E0A0E8B0E001C0A8
:100080001D92A23CB207E1F710E0CAE2D0E003C043
:100090002197FE0194D6C932D107D1F71ED595C656
:1000A000AFCF61E08AE061D361E089E05ED361E0D7
:1000B00088E05BD360E08AE096D360E089E093D388
:1000C00060E088E090D340E05BE460E070E083EAC9
:1000D00090E083D2F6D260939B0070939C00809353
:1000E0009D0090939E0060939F007093A00080936A
:1000F000A1009093A200DC01CB0188519C4FAF4F2F
:10010000BF4F8093970090939800A0939900B0936D
:100110009A008093930090939400A0939500B093DD
:10012000960065E670E083EA90E0E8D380E8EAD2E2
:100130004AE050E0BC0183EA90E08ED481E8E2D24C
:100140004AE050E0BC0183EA90E086D482E8DAD24B
:100150004AE050E0BC0183EA90E07EC48F929F9217
:10016000AF92BF92CF92DF92EF92FF92CF93DF9345
:10017000A8D260939B0070939C0080939D00909305
:100180009E008091910090919200909390008093B6
:100190008F0080916000813011F481E807C08230C7
:1001A00011F482E803C0833031F480E8ABD290933D
:1001B000920080939100C0919100D0919200809123
:1001C0008F00909190009E01281B390BC0909B00DE
:1001D000D0909C00E0909D00F0909E0080909F0049
:1001E0009090A000A090A100B090A2008091820009
:1001F000909183002D3E4FEF34070CF463C02431FF
:1002000031050CF05FC0B701A601481959096A0908
:100210007B09443051056105710508F453C02091F4
:100220008D0030918E004091870050918800609140
:10023000850070918600283EE3E03E07A8F010920A
:100240008E0010928D0050938C0040938B00709321
:100250008A0060938900D0938800C0938700D09370
:100260008600C093850014C02F5F3F4F30938E00EF
:1002700020938D006C177D0720F4D0938600C093E7
:100280008500C417D50720F4D0938800C093870059
:100290008C179D0748F420918000309181008217CF
:1002A000930784F021E00BC0C817D90758F42091B8
:1002B0008000309181002817390724F022E0209334
:1002C000840002C01092840090938100809380008B
:1002D000D0938300C0938200809197009091980002
:1002E000A0919900B0919A008C159D05AE05BF05AF
:1002F000E8F56091610070916200809163009091D7
:1003000064006F3071058105910580F16E317105D2
:100310008105910570F4DC01CB010197A109B109B8
:100320008093610090936200A0936300B093640097
:100330000FC005D426E636E646E65FE38ED4D3D377
:1003400060936100709362008093630090936400F7
:10035000D701C60188519C4FAF4FBF4F8093970084
:1003600090939800A0939900B0939A00B701A601CA
:10037000481959096A097B098091610090916200CE
:10038000A0916300B091640084179507A607B70792
:1003900008F073C08091930090919400A091950013
:1003A000B0919600C816D906EA06FB0660F148EE41
:1003B000C40E43E0D41EE11CF11CC0929300D09205
:1003C0009400E0929500F09296004AE050E0BE0161
:1003D00083EA90E07DD36EE670E083EA90E074D229
:1003E0004AE050E06091600083EA90E056D36EE608
:1003F00070E083EA90E068D24AE050E060918400C7
:1004000083EA90E050D380916000833059F461E03A
:100410008AE0E9D160E089E0E6D160E088E0E3D1FC
:1004200081E019C0813059F461E089E0DCD160E0FD
:100430008AE0D9D160E088E0D6D182E00CC0823079
:1004400061F461E088E0CFD160E089E0CCD160E088
:100450008AE0C9D183E08093600080919B009091F5
:100460009C00A0919D00B0919E0080939F0090936E
:10047000A000A093A100B093A200DF91CF91FF90C4
:10048000EF90DF90CF90BF90AF909F908F900895A6
:1004900040E063E083EA90E089C083EA90E05EC0D8
:1004A0001F93CF93DF93DC0152962D913C9153978C
:1004B0002115310539F481E090E013969C938E93D9
:1004C00012973DC01D96ED91FC911E971C969C9134
:1004D0001C97892F80951FB754964C91549741FBD8
:1004E000772770F941FD6095F8944081772311F0EA
:1004F000492B01C048234083E9012197F1F748E0E7
:10050000508160FF02C0592B01C058235083E9017C
:100510002197F1F76695415099F7772321F0908163
:100520008923808303C08081982B90831FBF5296BC
:100530008D919C9153970197F1F721E030E0C9012B
:10054000DF91CF911F91089508958FEF9FEF089548
:1005500080E090E008958FEF9FEF089508951F9336
:10056000CF93DF93EC01162F6C896695617081E063
:100570006827812F38D161E0812FF7D0612F70E09B
:10058000FB01E25DFF4FE491EC87FB01E65CFF4F6E
:10059000E491F0E0EE0FFF1FEA5BFF4F859194912D
:1005A0009E878D87DF91CF911F910895FC01138263
:1005B000128288EE93E0A0E0B0E084839583A68366
:1005C000B78384E790E091838083138A128A8489B9
:1005D00040FB81F9848BCF01C2CFCF93DF93EC0135
:1005E0009A01AB0160E874E88EE190E0CCD324304E
:1005F000310518F02350310902C021E030E03B8B77
:100600002A8BDF91CF9108958EB5887F8EBD8FB5EF
:1006100081608FBD8FB58D7F8FBD8EB5877F8EBD7D
:100620008EB58F7E8EBD8EB583608EBD08951F9270
:100630000F920FB60F9211242F933F938F939F9396
:10064000AF93BF938091B9009091BA00A091BB0085
:10065000B091BC003091B80026E0230F2D3730F068
:1006600029E8230F0396A11DB11D03C00296A11D09
:10067000B11D2093B8008093B9009093BA00A09365
:10068000BB00B093BC008091BD009091BE00A091D2
:10069000BF00B091C0000196A11DB11D8093BD00A7
:1006A0009093BE00A093BF00B093C000BF91AF91E4
:1006B0009F918F913F912F910F900FBE0F901F90A0
:1006C00018952FB7F8946091B9007091BA00809195
:1006D000BB009091BC002FBF089580B7826080BF9F
:1006E00080B7816080BF83B7887F836083BF789441
:1006F00089B7816089BF88DF86B18877866886B9C7
:10070000379A08958F739091C1009295990F990F20
:10071000907C892B87B9369A3699FECF84B125B162
:1007200090E0922B0895813031F480B78F7780BFAD
:1007300080B78F7B07C0823039F480B78F7D80BF50
:1007400080B78F7E80BF0895833031F48FB58F7767
:100750008FBD8FB58F7B07C0843031F48FB58F7D0F
:100760008FBD8FB58F7E8FBD0895CF93DF9387FDAB
:100770008F7790E0FC01E25DFF4F2491FC01E65C85
:10078000FF4F8491882361F190E0880F991FFC014D
:10079000E45BFF4FC591D491FC01EA5BFF4FA5914B
:1007A000B491611109C09FB7F89488812095822384
:1007B0008883EC912E230BC0623061F49FB7F894CC
:1007C0003881822F809583238883EC912E2B2C9364
:1007D0009FBF06C08FB7F894E8812E2B28838FBF68
:1007E000DF91CF9108950F931F93CF93DF931F92C3
:1007F000CDB7DEB787FD8F77282F30E0F901EE5DAA
:10080000FF4F8491F901E25DFF4F1491F901E65C1D
:10081000FF4F04910023D9F0882319F0698383DF07
:100820006981E02FF0E0EE0FFF1FEA5BFF4FA5911B
:10083000B4918FB7611106C0F8949C91E12FE095B7
:10084000E92303C0F894EC91E12BEC938FBF0F9058
:10085000DF91CF911F910F910895CF92DF92EF9288
:10086000FF920F931F93CF93DF936C01EB017B01FA
:10087000E40EF51E00E010E0CE15DF0561F0699191
:10088000D601ED91FC910190F081E02DC601099512
:10089000080F191FF1CFC801DF91CF911F910F9160
:1008A000FF90EF90DF90CF900895FB010190002022
:1008B000E9F73197AF01461B570BDC01ED91FC9135
:1008C0000280F381E02D0994F0CFDC01ED91FC91E1
:1008D0000190F081E02D09940F931F93CF93DF9344
:1008E000EC016DE0F2DF8C016AE0CE01EEDF800FFB
:1008F000911FDF91CF911F910F9108950F931F9337
:10090000CF93DF93EC01D1DF8C01CE01E5DF800FC7
:10091000911FDF91CF911F910F9108958F929F9218
:10092000AF92BF92CF92DF92EF92FF920F931F93FD
:10093000CF93DF93CDB7DEB7A1970FB6F894DEBFA4
:100940000FBECDBF6C01142FE52FCB01022F19A2D2
:10095000223008F40AE07E0121E2E20EF11C802E32
:10096000912CA12CB12C612F7E2FA5019401E9D1EE
:10097000802F622FDDD1181B81E0E81AF1081A30B0
:1009800014F4105D01C0195CF7011083122FE32FDE
:10099000CA01232B242B252B31F7B701C60185DF94
:1009A000A1960FB6F894DEBF0FBECDBFDF91CF91F9
:1009B0001F910F91FF90EF90DF90CF90BF90AF907D
:1009C0009F908F900895CF92DF92EF92FF920F93B6
:1009D0001F93CF93DF93EC016A017B012115310551
:1009E00079F4E881F9810190F081E02D642FDF91A5
:1009F000CF911F910F91FF90EF90DF90CF900994CE
:100A00002A30310501F577FF0CC06DE25EDF8C0105
:100A1000F094E094D094C094C11CD11CE11CF11C52
:100A200002C000E010E02AE0B701A601CE0176DFA7
:100A3000800F911FDF91CF911F910F91FF90EF9049
:100A4000DF90CF900895DF91CF911F910F91FF908C
:100A5000EF90DF90CF9062CF0F931F93CF93DF93F0
:100A6000EC019A01AB01770F660B770BACDF8C01C1
:100A7000CE0132DF800F911FDF91CF911F910F9137
:100A800008952115310541F4DC01ED91FC910190AF
:100A9000F081E02D642F099441CF9A01462F50E058
:100AA00060E070E0EECF0F931F93CF93DF93EC01E4
:100AB0009A01462F50E060E070E0E3DF8C01CE0148
:100AC0000BDF800F911FDF91CF911F910F91089540
:100AD0009A01AB0160E070E0D4CF81B781BFFDDD4A
:100AE000E0DA3CDBFECF98D088F09F5790F0B92F2A
:100AF0009927B751A0F0D1F0660F771F881F991F73
:100B00001AF0BA95C9F712C0B13081F09FD0B1E0A8
:100B100008959CC0672F782F8827B85F39F0B93FB8
:100B2000CCF3869577956795B395D9F73EF4909574
:100B30008095709561957F4F8F4F9F4F0895E894F2
:100B400009C097FB3EF490958095709561957F4F15
:100B50008F4F9F4F9923A9F0F92F96E9BB279395C3
:100B6000F695879577956795B795F111F8CFFAF4D3
:100B7000BB0F11F460FF1BC06F5F7F4F8F4F9F4F04
:100B800016C0882311F096E911C0772321F09EE862
:100B9000872F762F05C0662371F096E8862F70E0C8
:100BA00060E02AF09A95660F771F881FDAF7880FA2
:100BB0009695879597F9089597F99F6780E870E073
:100BC00060E008959FEF80EC089500240A941616C3
:100BD000170618060906089500240A94121613062B
:100BE000140605060895092E0394000C11F48823B9
:100BF00052F0BB0F40F4BF2B11F460FF04C06F5FD5
:100C00007F4F8F4F9F4F089557FD9058440F551FAA
:100C100059F05F3F71F04795880F97FB991F61F07E
:100C20009F3F79F087950895121613061406551FF5
:100C3000F2CF4695F1DF08C0161617061806991F61
:100C4000F1CF86957105610508940895E894BB2756
:100C500066277727CB0197F908950AD0C4CFB5DF6F
:100C600028F0BADF18F0952309F0A6CFABCFEFCF6D
:100C7000CBDFA8F39923D9F35523C9F3950F50E09F
:100C8000551FAA27EE27FF27BB2700240894679546
:100C900020F4E20FF31FB41F0A1E220F331F441F5C
:100CA000AA1F6695A9F7779530F4F30FB41F0A1EB3
:100CB000121E08F46395330F441FAA1F221F769556
:100CC00099F7879520F4B40F0A1E121E631F440F74
:100CD000AA1F221F331F8695A9F7862F712D602D1D
:100CE00011249F5750408AF0E1F088234AF0EE0F1C
:100CF000FF1FBB1F661F771F881F91505040A9F729
:100D00009E3F510570F058CFA2CF5F3FECF3983E65
:100D1000DCF3869577956795B795F795E7959F5F8F
:100D2000C1F7FE2B880F911D9695879597F9089529
:100D3000002480FD060E660F11F08695D1F7802DF8
:100D40000895A1E21A2EAA1BBB1BFD010DC0AA1F0C
:100D5000BB1FEE1FFF1FA217B307E407F50720F024
:100D6000A21BB30BE40BF50B661F771F881F991F9F
:100D70001A9469F760957095809590959B01AC01E8
:100D8000BD01CF010895052E97FB16F400940FD0F6
:100D900057FD05D0D6DF07FC02D046F408C05095B9
:100DA0004095309521953F4F4F4F5F4F0895909557
:100DB0008095709561957F4F8F4F9F4F0895EE0FEF
:100DC000FF1F0590F491E02D099410E0CAE2D0E0F5
:100DD00003C0FE01F4DF2196CB32D107D1F7F8949E
:020DE000FFCF43
:100DE20003E8030000617474696E79343400090009
:100DF2000000000050022D04A802A502AB02A402CA
:00000001FF
