:100000001EC042C041C040C03FC0AFC33DC03CC0A5
:100010003BC03AC039C038C037C036C035C0010215
:100020000000040001020408102002020202020281
:100030000000000038000000000037008403112495
:100040001FBECFE5D2E0DEBFCDBF10E0A0E6B0E03E
:10005000E0EEFEE002C005900D92A636B107D9F79A
:1000600020E0A6E6B0E001C01D92A539B207E1F795
:1000700010E0CFE1D0E003C02197FE0129D7CE31B7
:10008000D107D1F705D52AC7BBCF61E080E066D4A0
:1000900061E081E063D461E085E060D460E080E00D
:1000A000ACD460E081E0A9D460E085E0A6D460ED46
:1000B00077E080E090E0D6D361E080E09ED460ED10
:1000C00077E080E090E0CED360E080E096D460ED11
:1000D00077E080E090E0C6D361E081E08ED460ED0F
:1000E00077E080E090E0BED360E081E086D460ED10
:1000F00077E080E090E0B6D361E085E07ED460ED0B
:1001000077E080E090E0AED360E085E076D460ED0B
:1001100077E080E090E0A6D372D360938300709381
:10012000840080938500909386006093870070938D
:1001300088008093890090938A00DC01CB0188516C
:100140009C4FAF4FBF4F80937F0090938000A09350
:100150008100B093820060E081E800D460E082E832
:10016000FDD360E083E8FAD381E8B6D390937C00B6
:1001700080937B0081E8B0D390937A0080937900DC
:100180008091830090918400A0918500B0918600B9
:10019000805F984DAF4FBF4F80936600909367008C
:1001A000A0936800B093690008954F925F926F9298
:1001B0007F928F929F92AF92BF92CF92DF92EF92F7
:1001C000FF920F931F93CF93DF9319D36093830014
:1001D00070938400809385009093860080917D00C9
:1001E00090917E00909372008093710080916000E6
:1001F000813011F483E807C0823011F481E803C034
:10020000833031F482E868D390937E0080937D0040
:10021000C0917D00D0917E0080917100909172001C
:100220008E01081B190B0D5E1F4F0732110508F0D8
:1002300050C08091830090918400A0918500B0917E
:1002400086004091870050918800609189007091EC
:100250008A00841B950BA60BB70B0397A105B1056C
:10026000C0F18091730090917400209177003091DB
:1002700078004091750050917600883E63E09607C3
:10028000ACF0109274001092730030937C002093B5
:100290007B0050937A0040937900D0937800C0930C
:1002A0007700D0937600C093750013C001969093A9
:1002B0007400809373004C175D0724F4D09376008C
:1002C000C0937500C217D30724F4D0937800C0936D
:1002D0007700E0907B00F0907C00C0907900D09097
:1002E0007A00CE18DF08B6010D2C000C880B990B94
:1002F000D4D44B015C01BE010D2E000C880B990B70
:10030000CCD42B013C01B701FF0C880B990BC5D451
:100310009B01AC01C301B201C1D320E030E044E352
:1003200053E46BD5A501940122D489D460936C0069
:1003300080916F00909170000732110598F54091FF
:100340008300509184006091850070918600009137
:100350008700109188002091890030918A00401B0D
:10036000510B620B730B4630510561057105D0F0DE
:100370008C179D074CF420916D0030916E00821710
:10038000930794F021E00BC0C817D9076CF42091B3
:100390006D0030916E002817390734F022E0209369
:1003A0006B0002C010926B0090936E0080936D0002
:1003B000D0937000C0936F0080916A00811113C0C8
:1003C0008DE3C816D1047CF08091610090916200A9
:1003D000A0916300B09164004E97A105B10518F497
:1003E00081E080936A0080916A00813009F045C005
:1003F00020E030E040E452E4C501B401B4D387FF0B
:100400003CC060E080E0F9D260E081E0F6D260E0DC
:1004100085E0F3D260E177E280E090E023D284E6E9
:1004200090E0A0E0B0E08093610090936200A09320
:100430006300B09364008091830090918400A09148
:100440008500B091860088519C4FAF4FBF4F80937D
:100450007F0090938000A0938100B09382008091F0
:100460007D0090917E0090937C0080937B00909320
:100470007A008093790010926A00C0908300D09037
:100480008400E0908500F090860080917F0090913C
:100490008000A0918100B09182008C159D05AE0571
:1004A000BF05E8F560916100709162008091630082
:1004B000909164006F3071058105910580F169317B
:1004C00071058105910570F4DC01CB010197A1094B
:1004D000B1098093610090936200A0936300B09390
:1004E00064000FC0D8D326E636E646E65FE385D43F
:1004F000A6D3609361007093620080936300909331
:100500006400D701C60188519C4FAF4FBF4F809305
:100510007F0090938000A0938100B0938200C091EF
:100520006A00C130E9F580916000833099F48091D0
:100530006B00823009F087C080916C008F3108F029
:1005400082C060E085E059D261E080E056D261E08F
:1005500081E014C08130B1F4C0916B00C23009F069
:1005600072C080916C008F3108F06DC060E080E057
:1005700044D261E081E041D261E085E03ED2C093A7
:10058000600051C0823009F05EC080916B00823003
:1005900009F059C080916C008F3108F054C037C009
:1005A0008091870090918800A0918900B0918A0085
:1005B000C81AD90AEA0AFB0A809161009091620088
:1005C000A0916300B09164008C159D05AE05BF0538
:1005D000D0F580916000833059F460E085E00DD261
:1005E00061E080E00AD261E081E007D281E019C0D9
:1005F000813059F460E080E000D261E081E0FDD11B
:1006000061E085E0FAD182E00CC0823061F460E004
:1006100081E0F3D161E085E0F0D161E080E0EDD1EF
:1006200083E0809360008091830090918400A0918A
:100630008500B09186008093870090938800A093F6
:100640008900B0938A008091830090918400A091EA
:100650008500B0918600409187005091880060919C
:10066000890070918A00841B950BA60BB70B853609
:100670009105A105B105B8F160E080E0BED160E070
:1006800081E0BBD160E085E0B8D110926A0084E6D9
:1006900090E0A0E0B0E08093610090936200A093AE
:1006A0006300B09364008091830090918400A091D6
:1006B0008500B091860088519C4FAF4FBF4F80930B
:1006C0007F0090938000A0938100B093820080917E
:1006D0007D0090917E0090937C0080937B009093AE
:1006E0007A0080937900DF91CF911F910F91FF9055
:1006F000EF90DF90CF90BF90AF909F908F907F90C2
:100700006F905F904F9008957AD0609387007093B8
:1007100088008093890090938A0071D06093830051
:1007200070938400809385009093860068D0DC01EC
:10073000CB0188519C4FAF4FBF4F80937F00909368
:100740008000A0938100B0938200089580B7807FDD
:1007500080BF80B7806880BF8CB580648CBD8FEF10
:100760008DBD80B7876080BF08951F920F920FB62E
:100770000F9211242F933F938F939F93AF93BF9327
:1007800080918C0090918D00A0918E00B0918F008F
:1007900030918B0026E0230F2D3730F029E8230F0E
:1007A0000396A11DB11D03C00296A11DB11D20938A
:1007B0008B0080938C0090938D00A0938E00B0935B
:1007C0008F008091900090919100A0919200B09143
:1007D00093000196A11DB11D80939000909391000C
:1007E000A0939200B0939300BF91AF919F918F918E
:1007F0003F912F910F900FBE0F901F9018952FB71C
:10080000F89460918C0070918D0080918E00909191
:100810008F002FBF08953FB7F8948091900090917A
:100820009100A0919200B091930022B708B601FE0A
:1008300005C02F3F19F00196A11DB11D3FBFBA2F72
:10084000A92F982F8827820F911DA11DB11DBC01D2
:10085000CD0143E0660F771F881F991F4A95D1F796
:1008600008950895CF92DF92EF92FF92CF93DF9396
:100870006B017C01D0DFEB01C114D104E104F10470
:1008800079F0EFDFC8DF6C1B7D0B683E7340A0F38F
:1008900081E0C81AD108E108F108C851DC4FF2CF55
:1008A000DF91CF91FF90EF90DF90CF9008958AB5C0
:1008B00082608ABD8AB581608ABD83B7887F836084
:1008C00083BF789489B7826089BF40DF86B188771B
:1008D000866886B9379A08958F70909194009295A2
:1008E000990F990F907C892B87B987B190919400CB
:1008F00092FB222720F930E094E0220F331F9A95D3
:10090000E1F7282B27B9369A3699FECF84B125B165
:1009100090E0922B0895813031F48AB58F778ABDAB
:100920008AB58F7B07C0823039F48AB58F7D8ABD46
:100930008AB58F7E8ABD0895833039F480B78F7D64
:1009400080BF80B78F7E80BF0895843031F48CB52E
:100950008F7D8CBD8CB58F7E8CBD0895CF93DF933A
:1009600087FF11C08F7741F0813041F0823041F034
:10097000833041F08FEF07C085E005C082E003C0FF
:1009800084E001C083E090E0FC01EC5DFF4F249126
:10099000FC01E65DFF4F8491882361F190E0880FB0
:1009A000991FFC01EA5CFF4FC591D491FC01E05D09
:1009B000FF4FA591B491611109C09FB7F894888148
:1009C000209582238883EC912E230BC0623061F442
:1009D0009FB7F8943881822F809583238883EC9188
:1009E0002E2B2C939FBF06C08FB7F894E8812E2B37
:1009F00028838FBFDF91CF9108950F931F93CF93DB
:100A0000DF931F92CDB7DEB787FF11C08F7741F01C
:100A1000813041F0823041F0833041F08FEF07C0E8
:100A200085E005C082E003C084E001C083E0282F98
:100A300030E0F901E25EFF4F8491F901EC5DFF4F78
:100A40001491F901E65DFF4F04910023D9F088234A
:100A500019F0698360DF6981E02FF0E0EE0FFF1F7E
:100A6000E05DFF4FA591B4918FB7611106C0F89476
:100A70009C91E12FE095E92303C0F894EC91E12BE0
:100A8000EC938FBF0F90DF91CF911F910F9108953D
:100A900081B781BF0CDFF9DA88DBFECF5058BB2766
:100AA000AA270ED070C161D130F066D120F031F4A8
:100AB0009F3F11F41EF456C10EF4E095E7FB4CC1C4
:100AC000E92F72D180F3BA1762077307840795077D
:100AD00018F071F49EF58AC10EF4E0950B2EBA2F32
:100AE000A02D0B01B90190010C01CA01A001112434
:100AF000FF27591B99F0593F50F4503E68F11A16E0
:100B0000F040A22F232F342F4427585FF3CF469570
:100B100037952795A795F0405395C9F77EF41F1692
:100B2000BA0B620B730B840BBAF09150A1F0FF0F5C
:100B3000BB1F661F771F881FC2F70EC0BA0F621F48
:100B4000731F841F48F4879577956795B795F79538
:100B50009E3F08F0B3CF9395880F08F09927EE0FCA
:100B6000979587950895D4D008F481E008950CD026
:100B70000AC102D140F0F9D030F021F45F3F19F002
:100B8000EBC0511134C1EEC00FD198F39923C9F3D2
:100B90005523B1F3951B550BBB27AA276217730783
:100BA000840738F09F5F5F4F220F331F441FAA1F37
:100BB000A9F333D00E2E3AF0E0E830D091505040F7
:100BC000E695001CCAF729D0FE2F27D0660F771FA5
:100BD000881FBB1F261737074807AB07B0E809F087
:100BE000BB0B802DBF01FF2793585F4F2AF09E3F1C
:100BF000510568F0B1C0FBC05F3FECF3983EDCF3F9
:100C0000869577956795B795F7959F5FC9F7880F94
:100C1000911D9695879597F90895E1E0660F771FE6
:100C2000881FBB1F621773078407BA0720F0621B77
:100C3000730B840BBA0BEE1F88F7E0950895BCD0B8
:100C400088F09F5790F0B92F9927B751A0F0D1F0B5
:100C5000660F771F881F991F1AF0BA95C9F712C03F
:100C6000B13081F0C3D0B1E00895C0C0672F782FB4
:100C70008827B85F39F0B93FCCF3869577956795AB
:100C8000B395D9F73EF490958095709561957F4F17
:100C90008F4F9F4F0895E89409C097FB3EF49095BD
:100CA0008095709561957F4F8F4F9F4F9923A9F045
:100CB000F92F96E9BB279395F695879577956795D4
:100CC000B795F111F8CFFAF4BB0F11F460FF1BC018
:100CD0006F5F7F4F8F4F9F4F16C0882311F096E9AB
:100CE00011C0772321F09EE8872F762F05C0662359
:100CF00071F096E8862F70E060E02AF09A95660F12
:100D0000771F881FDAF7880F9695879597F90895CA
:100D1000990F0008550FAA0BE0E8FEEF161617060C
:100D2000E807F907C0F012161306E407F50798F074
:100D3000621B730B840B950B39F40A2661F0232B8D
:100D4000242B252B21F408950A2609F4A140A69509
:100D50008FEF811D811D089597F99F6780E870E0EE
:100D600060E008959FEF80EC089500240A94161621
:100D7000170618060906089500240A941216130689
:100D8000140605060895092E0394000C11F4882317
:100D900052F0BB0F40F4BF2B11F460FF04C06F5F33
:100DA0007F4F8F4F9F4F089557FD9058440F551F09
:100DB00059F05F3F71F04795880F97FB991F61F0DD
:100DC0009F3F79F087950895121613061406551F54
:100DD000F2CF4695F1DF08C0161617061806991FC0
:100DE000F1CF86957105610508940895E894BB27B5
:100DF00066277727CB0197F908950AD0C4CFB5DFCE
:100E000028F0BADF18F0952309F0A6CFABCFEFCFCB
:100E1000CBDFA8F39923D9F35523C9F3950F50E0FD
:100E2000551FAA27EE27FF27BB27002408946795A4
:100E300020F4E20FF31FB41F0A1E220F331F441FBA
:100E4000AA1F6695A9F7779530F4F30FB41F0A1E11
:100E5000121E08F46395330F441FAA1F221F7695B4
:100E600099F7879520F4B40F0A1E121E631F440FD2
:100E7000AA1F221F331F8695A9F7862F712D602D7B
:100E800011249F5750408AF0E1F088234AF0EE0F7A
:100E9000FF1FBB1F661F771F881F91505040A9F787
:100EA0009E3F510570F058CFA2CF5F3FECF3983EC4
:100EB000DCF3869577956795B795F795E7959F5FEE
:100EC000C1F7FE2B880F911D9695879597F9089588
:100ED000EE0FFF1F0590F491E02D0994F894FFCFD9
:060EE000036400000000A5
:00000001FF
